{
  "_format": "hh-sol-artifact-1",
  "contractName": "Staking",
  "sourceName": "contracts/stakingPoolReal_1.sol",
  "abi": [
    {
      "anonymous": false,
      "inputs": [
        {
          "indexed": true,
          "internalType": "address",
          "name": "previousOwner",
          "type": "address"
        },
        {
          "indexed": true,
          "internalType": "address",
          "name": "newOwner",
          "type": "address"
        }
      ],
      "name": "OwnershipTransferred",
      "type": "event"
    },
    {
      "inputs": [
        {
          "internalType": "contract IERC20",
          "name": "_depositToken",
          "type": "address"
        },
        {
          "internalType": "contract IERC20",
          "name": "_rewardToken",
          "type": "address"
        },
        {
          "internalType": "uint256",
          "name": "_apy",
          "type": "uint256"
        },
        {
          "internalType": "uint256",
          "name": "_lockDays",
          "type": "uint256"
        }
      ],
      "name": "add",
      "outputs": [],
      "stateMutability": "nonpayable",
      "type": "function"
    },
    {
      "inputs": [
        {
          "internalType": "uint256",
          "name": "_pid",
          "type": "uint256"
        },
        {
          "internalType": "uint256",
          "name": "_amount",
          "type": "uint256"
        }
      ],
      "name": "deposit",
      "outputs": [],
      "stateMutability": "nonpayable",
      "type": "function"
    },
    {
      "inputs": [
        {
          "internalType": "address",
          "name": "",
          "type": "address"
        }
      ],
      "name": "depositedTokens",
      "outputs": [
        {
          "internalType": "uint256",
          "name": "",
          "type": "uint256"
        }
      ],
      "stateMutability": "view",
      "type": "function"
    },
    {
      "inputs": [
        {
          "internalType": "uint256",
          "name": "_pid",
          "type": "uint256"
        },
        {
          "internalType": "uint256",
          "name": "_apy",
          "type": "uint256"
        }
      ],
      "name": "modifyPool",
      "outputs": [],
      "stateMutability": "nonpayable",
      "type": "function"
    },
    {
      "inputs": [],
      "name": "owner",
      "outputs": [
        {
          "internalType": "address",
          "name": "",
          "type": "address"
        }
      ],
      "stateMutability": "view",
      "type": "function"
    },
    {
      "inputs": [
        {
          "internalType": "uint256",
          "name": "_pid",
          "type": "uint256"
        },
        {
          "internalType": "address",
          "name": "_user",
          "type": "address"
        }
      ],
      "name": "pendingReward",
      "outputs": [
        {
          "internalType": "uint256",
          "name": "",
          "type": "uint256"
        }
      ],
      "stateMutability": "view",
      "type": "function"
    },
    {
      "inputs": [
        {
          "internalType": "uint256",
          "name": "",
          "type": "uint256"
        }
      ],
      "name": "poolInfo",
      "outputs": [
        {
          "internalType": "contract IERC20",
          "name": "depositToken",
          "type": "address"
        },
        {
          "internalType": "contract IERC20",
          "name": "rewardToken",
          "type": "address"
        },
        {
          "internalType": "uint256",
          "name": "depositedAmount",
          "type": "uint256"
        },
        {
          "internalType": "uint256",
          "name": "apy",
          "type": "uint256"
        },
        {
          "internalType": "uint256",
          "name": "lockDays",
          "type": "uint256"
        }
      ],
      "stateMutability": "view",
      "type": "function"
    },
    {
      "inputs": [],
      "name": "renounceOwnership",
      "outputs": [],
      "stateMutability": "nonpayable",
      "type": "function"
    },
    {
      "inputs": [
        {
          "internalType": "address",
          "name": "token",
          "type": "address"
        },
        {
          "internalType": "uint256",
          "name": "amount",
          "type": "uint256"
        }
      ],
      "name": "sweep",
      "outputs": [],
      "stateMutability": "nonpayable",
      "type": "function"
    },
    {
      "inputs": [
        {
          "internalType": "address",
          "name": "newOwner",
          "type": "address"
        }
      ],
      "name": "transferOwnership",
      "outputs": [],
      "stateMutability": "nonpayable",
      "type": "function"
    },
    {
      "inputs": [
        {
          "internalType": "uint256",
          "name": "_pid",
          "type": "uint256"
        },
        {
          "internalType": "address",
          "name": "_user",
          "type": "address"
        }
      ],
      "name": "userDetail",
      "outputs": [
        {
          "components": [
            {
              "internalType": "uint256",
              "name": "amount",
              "type": "uint256"
            },
            {
              "internalType": "uint256",
              "name": "lastRewardAt",
              "type": "uint256"
            },
            {
              "internalType": "uint256",
              "name": "lockUntil",
              "type": "uint256"
            }
          ],
          "internalType": "struct Staking.UserInfo",
          "name": "",
          "type": "tuple"
        }
      ],
      "stateMutability": "view",
      "type": "function"
    },
    {
      "inputs": [
        {
          "internalType": "uint256",
          "name": "",
          "type": "uint256"
        },
        {
          "internalType": "address",
          "name": "",
          "type": "address"
        }
      ],
      "name": "userInfo",
      "outputs": [
        {
          "internalType": "uint256",
          "name": "amount",
          "type": "uint256"
        },
        {
          "internalType": "uint256",
          "name": "lastRewardAt",
          "type": "uint256"
        },
        {
          "internalType": "uint256",
          "name": "lockUntil",
          "type": "uint256"
        }
      ],
      "stateMutability": "view",
      "type": "function"
    },
    {
      "inputs": [
        {
          "internalType": "uint256",
          "name": "_pid",
          "type": "uint256"
        },
        {
          "internalType": "uint256",
          "name": "_amount",
          "type": "uint256"
        }
      ],
      "name": "withdraw",
      "outputs": [],
      "stateMutability": "nonpayable",
      "type": "function"
    }
  ],
  "bytecode": "0x6080604052670de0b6b3a764000060025534801561001c57600080fd5b5061003961002e61004560201b60201c565b61004d60201b60201c565b60018081905550610111565b600033905090565b60008060009054906101000a900473ffffffffffffffffffffffffffffffffffffffff169050816000806101000a81548173ffffffffffffffffffffffffffffffffffffffff021916908373ffffffffffffffffffffffffffffffffffffffff1602179055508173ffffffffffffffffffffffffffffffffffffffff168173ffffffffffffffffffffffffffffffffffffffff167f8be0079c531659141344cd1fd0a4f28419497f9722a3daafe3b4186f6b6457e060405160405180910390a35050565b61218480620001216000396000f3fe608060405234801561001057600080fd5b50600436106100cf5760003560e01c80638da5cb5b1161008c578063c326bf4f11610066578063c326bf4f14610202578063d84197b614610232578063e2bbb15814610262578063f2fde38b1461027e576100cf565b80638da5cb5b1461018257806393f1a40b146101a057806398969e82146101d2576100cf565b80631526fe27146100d457806339739b9914610108578063441a3e70146101245780634efd1551146101405780636ea056a91461015c578063715018a614610178575b600080fd5b6100ee60048036038101906100e9919061164f565b61029a565b6040516100ff959493929190611a14565b60405180910390f35b610122600480360381019061011d91906116dd565b610320565b005b61013e600480360381019061013991906116dd565b610382565b005b61015a600480360381019061015591906115ec565b61074b565b005b61017660048036038101906101719190611587565b610886565b005b610180610a1b565b005b61018a610a2f565b6040516101979190611999565b60405180910390f35b6101ba60048036038101906101b591906116a1565b610a58565b6040516101c993929190611c1f565b60405180910390f35b6101ec60048036038101906101e791906116a1565b610a8f565b6040516101f99190611c04565b60405180910390f35b61021c6004803603810190610217919061155e565b610af7565b6040516102299190611c04565b60405180910390f35b61024c600480360381019061024791906116a1565b610b0f565b6040516102599190611be9565b60405180910390f35b61027c600480360381019061027791906116dd565b610b9e565b005b6102986004803603810190610293919061155e565b610f3e565b005b600381815481106102aa57600080fd5b90600052602060002090600502016000915090508060000160009054906101000a900473ffffffffffffffffffffffffffffffffffffffff16908060010160009054906101000a900473ffffffffffffffffffffffffffffffffffffffff16908060020154908060030154908060040154905085565b610328610fc2565b600060038381548110610364577f4e487b7100000000000000000000000000000000000000000000000000000000600052603260045260246000fd5b90600052602060002090600502019050818160030181905550505050565b600260015414156103c8576040517f08c379a00000000000000000000000000000000000000000000000000000000081526004016103bf90611bc9565b60405180910390fd5b600260018190555060006003838154811061040c577f4e487b7100000000000000000000000000000000000000000000000000000000600052603260045260246000fd5b9060005260206000209060050201905060006005600085815260200190815260200160002060003373ffffffffffffffffffffffffffffffffffffffff1673ffffffffffffffffffffffffffffffffffffffff168152602001908152602001600020905082816000015410156104b7576040517f08c379a00000000000000000000000000000000000000000000000000000000081526004016104ae90611b09565b60405180910390fd5b42816002015411156104fe576040517f08c379a00000000000000000000000000000000000000000000000000000000081526004016104f590611b89565b60405180910390fd5b600061050a8286611040565b905060008111156105c8578260010160009054906101000a900473ffffffffffffffffffffffffffffffffffffffff1673ffffffffffffffffffffffffffffffffffffffff1663a9059cbb33836040518363ffffffff1660e01b81526004016105749291906119eb565b602060405180830381600087803b15801561058e57600080fd5b505af11580156105a2573d6000803e3d6000fd5b505050506040513d601f19601f820116820180604052508101906105c691906115c3565b505b600084111561073457838260000160008282546105e59190611d69565b92505081905550838360020160008282546106009190611d69565b9250508190555083600460008560000160009054906101000a900473ffffffffffffffffffffffffffffffffffffffff1673ffffffffffffffffffffffffffffffffffffffff1673ffffffffffffffffffffffffffffffffffffffff168152602001908152602001600020600082825461067a9190611d69565b925050819055508260000160009054906101000a900473ffffffffffffffffffffffffffffffffffffffff1673ffffffffffffffffffffffffffffffffffffffff1663a9059cbb33866040518363ffffffff1660e01b81526004016106e09291906119eb565b602060405180830381600087803b1580156106fa57600080fd5b505af115801561070e573d6000803e3d6000fd5b505050506040513d601f19601f8201168201806040525081019061073291906115c3565b505b428260010181905550505050600180819055505050565b610753610fc2565b60036040518060a001604052808673ffffffffffffffffffffffffffffffffffffffff1681526020018573ffffffffffffffffffffffffffffffffffffffff1681526020016000815260200184815260200183815250908060018154018082558091505060019003906000526020600020906005020160009091909190915060008201518160000160006101000a81548173ffffffffffffffffffffffffffffffffffffffff021916908373ffffffffffffffffffffffffffffffffffffffff16021790555060208201518160010160006101000a81548173ffffffffffffffffffffffffffffffffffffffff021916908373ffffffffffffffffffffffffffffffffffffffff160217905550604082015181600201556060820151816003015560808201518160040155505050505050565b61088e610fc2565b60008273ffffffffffffffffffffffffffffffffffffffff166370a08231306040518263ffffffff1660e01b81526004016108c99190611999565b60206040518083038186803b1580156108e157600080fd5b505afa1580156108f5573d6000803e3d6000fd5b505050506040513d601f19601f820116820180604052508101906109199190611678565b90508082111561095e576040517f08c379a000000000000000000000000000000000000000000000000000000000815260040161095590611a89565b60405180910390fd5b600460008473ffffffffffffffffffffffffffffffffffffffff1673ffffffffffffffffffffffffffffffffffffffff1681526020019081526020016000205482826109aa9190611d69565b10156109eb576040517f08c379a00000000000000000000000000000000000000000000000000000000081526004016109e290611ae9565b60405180910390fd5b610a1633838573ffffffffffffffffffffffffffffffffffffffff166111059092919063ffffffff16565b505050565b610a23610fc2565b610a2d600061118b565b565b60008060009054906101000a900473ffffffffffffffffffffffffffffffffffffffff16905090565b6005602052816000526040600020602052806000526040600020600091509150508060000154908060010154908060020154905083565b6000806005600085815260200190815260200160002060008473ffffffffffffffffffffffffffffffffffffffff1673ffffffffffffffffffffffffffffffffffffffff1681526020019081526020016000209050610aee8185611040565b91505092915050565b60046020528060005260406000206000915090505481565b610b176114d4565b60006005600085815260200190815260200160002060008473ffffffffffffffffffffffffffffffffffffffff1673ffffffffffffffffffffffffffffffffffffffff168152602001908152602001600020604051806060016040529081600082015481526020016001820154815260200160028201548152505090508091505092915050565b60026001541415610be4576040517f08c379a0000000000000000000000000000000000000000000000000000000008152600401610bdb90611bc9565b60405180910390fd5b600260018190555060008111610c2f576040517f08c379a0000000000000000000000000000000000000000000000000000000008152600401610c2690611aa9565b60405180910390fd5b600060038381548110610c6b577f4e487b7100000000000000000000000000000000000000000000000000000000600052603260045260246000fd5b9060005260206000209060050201905060006005600085815260200190815260200160002060003373ffffffffffffffffffffffffffffffffffffffff1673ffffffffffffffffffffffffffffffffffffffff1681526020019081526020016000209050600081600001541115610d9e576000610ce88286611040565b90508260010160009054906101000a900473ffffffffffffffffffffffffffffffffffffffff1673ffffffffffffffffffffffffffffffffffffffff1663a9059cbb33836040518363ffffffff1660e01b8152600401610d499291906119eb565b602060405180830381600087803b158015610d6357600080fd5b505af1158015610d77573d6000803e3d6000fd5b505050506040513d601f19601f82011682018060405250810190610d9b91906115c3565b50505b8160000160009054906101000a900473ffffffffffffffffffffffffffffffffffffffff1673ffffffffffffffffffffffffffffffffffffffff166323b872dd3330866040518463ffffffff1660e01b8152600401610dff939291906119b4565b602060405180830381600087803b158015610e1957600080fd5b505af1158015610e2d573d6000803e3d6000fd5b505050506040513d601f19601f82011682018060405250810190610e5191906115c3565b5082826002016000828254610e669190611c88565b9250508190555082816000016000828254610e819190611c88565b92505081905550428160010181905550620151808260040154610ea49190611d0f565b42610eaf9190611c88565b816002018190555082600460008460000160009054906101000a900473ffffffffffffffffffffffffffffffffffffffff1673ffffffffffffffffffffffffffffffffffffffff1673ffffffffffffffffffffffffffffffffffffffff1681526020019081526020016000206000828254610f2a9190611c88565b925050819055505050600180819055505050565b610f46610fc2565b600073ffffffffffffffffffffffffffffffffffffffff168173ffffffffffffffffffffffffffffffffffffffff161415610fb6576040517f08c379a0000000000000000000000000000000000000000000000000000000008152600401610fad90611ac9565b60405180910390fd5b610fbf8161118b565b50565b610fca61124f565b73ffffffffffffffffffffffffffffffffffffffff16610fe8610a2f565b73ffffffffffffffffffffffffffffffffffffffff161461103e576040517f08c379a000000000000000000000000000000000000000000000000000000000815260040161103590611b49565b60405180910390fd5b565b6000806003838154811061107d577f4e487b7100000000000000000000000000000000000000000000000000000000600052603260045260246000fd5b906000526020600020906005020190506000620151808560010154426110a39190611d69565b6110ad9190611cde565b905081600401548111156110c357816004015490505b8160030154606461016d8388600001546110dd9190611d0f565b6110e79190611cde565b6110f19190611cde565b6110fb9190611d0f565b9250505092915050565b6111868363a9059cbb60e01b84846040516024016111249291906119eb565b604051602081830303815290604052907bffffffffffffffffffffffffffffffffffffffffffffffffffffffff19166020820180517bffffffffffffffffffffffffffffffffffffffffffffffffffffffff8381831617835250505050611257565b505050565b60008060009054906101000a900473ffffffffffffffffffffffffffffffffffffffff169050816000806101000a81548173ffffffffffffffffffffffffffffffffffffffff021916908373ffffffffffffffffffffffffffffffffffffffff1602179055508173ffffffffffffffffffffffffffffffffffffffff168173ffffffffffffffffffffffffffffffffffffffff167f8be0079c531659141344cd1fd0a4f28419497f9722a3daafe3b4186f6b6457e060405160405180910390a35050565b600033905090565b60006112b9826040518060400160405280602081526020017f5361666545524332303a206c6f772d6c6576656c2063616c6c206661696c65648152508573ffffffffffffffffffffffffffffffffffffffff1661131e9092919063ffffffff16565b905060008151111561131957808060200190518101906112d991906115c3565b611318576040517f08c379a000000000000000000000000000000000000000000000000000000000815260040161130f90611ba9565b60405180910390fd5b5b505050565b606061132d8484600085611336565b90509392505050565b60608247101561137b576040517f08c379a000000000000000000000000000000000000000000000000000000000815260040161137290611b29565b60405180910390fd5b6113848561144a565b6113c3576040517f08c379a00000000000000000000000000000000000000000000000000000000081526004016113ba90611b69565b60405180910390fd5b6000808673ffffffffffffffffffffffffffffffffffffffff1685876040516113ec9190611982565b60006040518083038185875af1925050503d8060008114611429576040519150601f19603f3d011682016040523d82523d6000602084013e61142e565b606091505b509150915061143e82828661146d565b92505050949350505050565b6000808273ffffffffffffffffffffffffffffffffffffffff163b119050919050565b6060831561147d578290506114cd565b6000835111156114905782518084602001fd5b816040517f08c379a00000000000000000000000000000000000000000000000000000000081526004016114c49190611a67565b60405180910390fd5b9392505050565b60405180606001604052806000815260200160008152602001600081525090565b600081359050611504816120f2565b92915050565b60008151905061151981612109565b92915050565b60008135905061152e81612120565b92915050565b60008135905061154381612137565b92915050565b60008151905061155881612137565b92915050565b60006020828403121561157057600080fd5b600061157e848285016114f5565b91505092915050565b6000806040838503121561159a57600080fd5b60006115a8858286016114f5565b92505060206115b985828601611534565b9150509250929050565b6000602082840312156115d557600080fd5b60006115e38482850161150a565b91505092915050565b6000806000806080858703121561160257600080fd5b60006116108782880161151f565b94505060206116218782880161151f565b935050604061163287828801611534565b925050606061164387828801611534565b91505092959194509250565b60006020828403121561166157600080fd5b600061166f84828501611534565b91505092915050565b60006020828403121561168a57600080fd5b600061169884828501611549565b91505092915050565b600080604083850312156116b457600080fd5b60006116c285828601611534565b92505060206116d3858286016114f5565b9150509250929050565b600080604083850312156116f057600080fd5b60006116fe85828601611534565b925050602061170f85828601611534565b9150509250929050565b61172281611d9d565b82525050565b600061173382611c56565b61173d8185611c6c565b935061174d818560208601611e1b565b80840191505092915050565b61176281611df7565b82525050565b600061177382611c61565b61177d8185611c77565b935061178d818560208601611e1b565b61179681611eac565b840191505092915050565b60006117ae601683611c77565b91506117b982611ebd565b602082019050919050565b60006117d1602083611c77565b91506117dc82611ee6565b602082019050919050565b60006117f4602683611c77565b91506117ff82611f0f565b604082019050919050565b6000611817601e83611c77565b915061182282611f5e565b602082019050919050565b600061183a601f83611c77565b915061184582611f87565b602082019050919050565b600061185d602683611c77565b915061186882611fb0565b604082019050919050565b6000611880602083611c77565b915061188b82611fff565b602082019050919050565b60006118a3601d83611c77565b91506118ae82612028565b602082019050919050565b60006118c6600e83611c77565b91506118d182612051565b602082019050919050565b60006118e9602a83611c77565b91506118f48261207a565b604082019050919050565b600061190c601f83611c77565b9150611917826120c9565b602082019050919050565b6060820160008201516119386000850182611964565b50602082015161194b6020850182611964565b50604082015161195e6040850182611964565b50505050565b61196d81611ded565b82525050565b61197c81611ded565b82525050565b600061198e8284611728565b915081905092915050565b60006020820190506119ae6000830184611719565b92915050565b60006060820190506119c96000830186611719565b6119d66020830185611719565b6119e36040830184611973565b949350505050565b6000604082019050611a006000830185611719565b611a0d6020830184611973565b9392505050565b600060a082019050611a296000830188611759565b611a366020830187611759565b611a436040830186611973565b611a506060830185611973565b611a5d6080830184611973565b9695505050505050565b60006020820190508181036000830152611a818184611768565b905092915050565b60006020820190508181036000830152611aa2816117a1565b9050919050565b60006020820190508181036000830152611ac2816117c4565b9050919050565b60006020820190508181036000830152611ae2816117e7565b9050919050565b60006020820190508181036000830152611b028161180a565b9050919050565b60006020820190508181036000830152611b228161182d565b9050919050565b60006020820190508181036000830152611b4281611850565b9050919050565b60006020820190508181036000830152611b6281611873565b9050919050565b60006020820190508181036000830152611b8281611896565b9050919050565b60006020820190508181036000830152611ba2816118b9565b9050919050565b60006020820190508181036000830152611bc2816118dc565b9050919050565b60006020820190508181036000830152611be2816118ff565b9050919050565b6000606082019050611bfe6000830184611922565b92915050565b6000602082019050611c196000830184611973565b92915050565b6000606082019050611c346000830186611973565b611c416020830185611973565b611c4e6040830184611973565b949350505050565b600081519050919050565b600081519050919050565b600081905092915050565b600082825260208201905092915050565b6000611c9382611ded565b9150611c9e83611ded565b9250827fffffffffffffffffffffffffffffffffffffffffffffffffffffffffffffffff03821115611cd357611cd2611e4e565b5b828201905092915050565b6000611ce982611ded565b9150611cf483611ded565b925082611d0457611d03611e7d565b5b828204905092915050565b6000611d1a82611ded565b9150611d2583611ded565b9250817fffffffffffffffffffffffffffffffffffffffffffffffffffffffffffffffff0483118215151615611d5e57611d5d611e4e565b5b828202905092915050565b6000611d7482611ded565b9150611d7f83611ded565b925082821015611d9257611d91611e4e565b5b828203905092915050565b6000611da882611dcd565b9050919050565b60008115159050919050565b6000611dc682611d9d565b9050919050565b600073ffffffffffffffffffffffffffffffffffffffff82169050919050565b6000819050919050565b6000611e0282611e09565b9050919050565b6000611e1482611dcd565b9050919050565b60005b83811015611e39578082015181840152602081019050611e1e565b83811115611e48576000848401525b50505050565b7f4e487b7100000000000000000000000000000000000000000000000000000000600052601160045260246000fd5b7f4e487b7100000000000000000000000000000000000000000000000000000000600052601260045260246000fd5b6000601f19601f8301169050919050565b7f416d6f756e7420657863656564732062616c616e636500000000000000000000600082015250565b7f416d6f756e742073686f756c642062652067726561746572207468616e203021600082015250565b7f4f776e61626c653a206e6577206f776e657220697320746865207a65726f206160008201527f6464726573730000000000000000000000000000000000000000000000000000602082015250565b7f43616e74207769746864726177206465706f736974656420746f6b656e730000600082015250565b7f576974686472617720616d6f756e7420657863656564732062616c616e636500600082015250565b7f416464726573733a20696e73756666696369656e742062616c616e636520666f60008201527f722063616c6c0000000000000000000000000000000000000000000000000000602082015250565b7f4f776e61626c653a2063616c6c6572206973206e6f7420746865206f776e6572600082015250565b7f416464726573733a2063616c6c20746f206e6f6e2d636f6e7472616374000000600082015250565b7f4c6f636b20697320616374697665000000000000000000000000000000000000600082015250565b7f5361666545524332303a204552433230206f7065726174696f6e20646964206e60008201527f6f74207375636365656400000000000000000000000000000000000000000000602082015250565b7f5265656e7472616e637947756172643a207265656e7472616e742063616c6c00600082015250565b6120fb81611d9d565b811461210657600080fd5b50565b61211281611daf565b811461211d57600080fd5b50565b61212981611dbb565b811461213457600080fd5b50565b61214081611ded565b811461214b57600080fd5b5056fea2646970667358221220210632007dfc59f6b59f245d4dc63cdce639223c13db0be9b9c58ac1eab9ffd364736f6c63430008010033",
  "linkReferences": {},
  "deployedLinkReferences": {}
}